:0E00FA000C0861626364656667B9FEB9FE00BA
:0D010900EFD3940040077E5ADEFE1F80F306
:0101160022C6
:10000300C2AF53890F438920759850758DFA758B4C
:0D001300FA438780D2ACD28ED29CD2AF22AD
:0A0123008F99751401E51470FC2299
:1000E7001200CEFF600C120123740129F9E43AFAD9
:0300F70080EE2276
:1000B20012000320B4FD7F1412010920B4F530B4FC
:0C00C200FD7B007A0079081200E780E75F
:03002300020117C0
:0C011700309803C29832C299751400326F
:03000000020026D5
:0C002600787FE4F6D8FD75811402006DAF
:1000CE00BB010689828A83E0225002E722BBFE0230
:0900DE00E32289828A83E4932263
:100032000200B2E493A3F8E493A34003F68001F232
:1000420008DFF48029E493A3F85407240CC8C333CF
:10005200C4540F4420C8834004F456800146F6DF9E
:10006200E4800B01020408102040809000FAE47E34
:10007200019360BCA3FF543F30E509541FFEE49393
:10008200A360010ECF54C025E060A840B8E493A35A
:10009200FAE493A3F8E493A3C8C582C8CAC583CA85
:1000A200F0A3C8C582C8CAC583CADFE9DEE780BE3D
:0101080000F6
:00000001FF
