:100217003F065B4F666D7D077F6F777C395E79712F
:03022700010A6465
:0401DC007F0A7E0018
:1001E000E4FDFCC3ED9FEC9E5015E4FBFA0BBB0055
:0F01F000010AEB64714A70F50DBD00010C80E44B
:0101FF0022DD
:04020000D2A3AF09CD
:10020400EF90021793F580D2A6C2A67580C0D2A73C
:03021400C2A7225C
:10000300C2A6C2A775B0FE85B0085308F0E5086420
:10001300F060411201DCE50864F0603885B008E562
:10002300082482601B24C0601224E0600924F0705D
:1000330012E4F509800D7509018008750902800332
:10004300750903E50864F0600885B0085308F0807B
:10005300F212020075B0FD85B0085308F0E508649C
:10006300F060411201DCE50864F0603885B008E512
:10007300082483601B24C0601224E0600924F0700C
:1000830012750904800D750905800875090680033A
:10009300750907E50864F0600885B0085308F08027
:1000A300F212020075B0FB85B0085308F0E508644E
:1000B300F060411201DCE50864F0603885B008E5C2
:1000C300082485601B24C0601224E0600924F070BA
:1000D30012750908800D750909800875090A8003DE
:1000E30075090BE50864F0600885B0085308F080D3
:1000F300F212020075B0F785B0085308F0E5086402
:10010300F070030200071201DCE50864F0700302DB
:10011300000785B008E5082489601B24C060122409
:10012300E0600924F0701275090C800D75090D80CB
:100133000875090E800375090FE50864F0600885EA
:0D014300B0085308F080F21202000200071D
:03000000020150AA
:0C015000787FE4F6D8FD75810C02019761
:10015C00020003E493A3F8E493A34003F68001F2B6
:10016C0008DFF48029E493A3F85407240CC8C333A4
:10017C00C4540F4420C8834004F456800146F6DF73
:10018C00E4800B0102040810204080900227E47EDA
:10019C00019360BCA3FF543F30E509541FFEE49368
:1001AC00A360010ECF54C025E060A840B8E493A32F
:1001BC00FAE493A3F8E493A3C8C582C8CAC583CA5A
:1001CC00F0A3C8C582C8CAC583CADFE9DEE780BE12
:01022A0000D3
:00000001FF
