:10026C0004217965730003286E6F00062B61677299
:10027C006565000931646973616772656500043AEC
:09028C0020202000033E20200088
:100231007F8A1202D47F147E0012024EE5272430F9
:0D024100FF1202BB7FCA1202D47F147E00A0
:10024E00D3EF9400EE940040147D6E7C00ED1D7093
:0D025E00011CED4C70F7EF1F70E61E80E3F1
:01026B002270
:1002D400C290C2A58F807F057E0012024ED2A57FF8
:0902E400057E0012024EC2A522A3
:0402B7002BF8E6FF3B
:1002BB00D290C2A58F807F057E0012024ED2A57F01
:0902CB00057E0012024EC2A522BC
:10029600C291C2A6C2A77F381202477F0C1202473C
:1002A6007F061202477F011202D47F147E000202EB
:0102B6004EF9
:1002ED007F8C120247E4FB74211202B712024A0BF3
:0302FD00BB03F44C
:0103000022DA
:100301007FCC120247E4FB74281202B712024A0B97
:03031100BB02F438
:0103140022C6
:100315007F80120247E4FB742B1202B712024A0BCC
:03032500BB05F421
:0103280022B2
:100329007FC0120247E4FB74311202B712024A0B72
:03033900BB08F40A
:01033C00229E
:1000030020014575B0FE85B0265326F0E52664F041
:1000130060367F0A7E0012024EE52664F060298571
:10002300B026E5262422600A24F0700A0527D201AF
:1000330080040525D201E52664F0600A85B02653C5
:1000430026F0C2A380F0D2A320024575B0FD85B08F
:10005300265326F0E52664F060367F0A7E001202FE
:100063004EE52664F0602985B026E5262423600A40
:1000730024F0700A0527D20280040525D202E52662
:1000830064F0600A85B0265326F0C2A380F0D2A3A1
:1000930020034575B0FB85B0265326F0E52664F0B2
:1000A30060367F0A7E0012024EE52664F0602985E1
:1000B300B026E5262425600A24F0700A0527D2031A
:1000C30080040525D203E52664F0600A85B0265333
:1000D30026F0C2A380F0D2A375B0F785B0265326CD
:1000E300F0E52664F0602A7F0A7E0012024EE526C0
:1000F30064F0601D85B026E52624197002D200E560
:100103002664F0600A85B0265326F0C2A380F0D29D
:02011300A32225
:10011500120296120315120329120003E527700433
:10012500E525600B120231E5252430FF1202BBE5FF
:10013500272525F9B90314E527D395254003120290
:10014500EDE527C3952550031203013000C5C20113
:10015500C202C203E4F527F525C200F91203151200
:100165000329120231E5252430FF1202BB7F8C12D0
:1001750002D4E4FA743A2AF8E6FF1202BB12024AE4
:100185000ABA03F07FCC1202D4E4FAEAC39402500F
:1001950082743E2AF8E6FF1202BB12024A0A80EB7D
:030000000201A555
:0C01A500787FE4F6D8FD7581400201EC83
:1001B100020115E493A3F8E493A34003F68001F24E
:1001C10008DFF48029E493A3F85407240CC8C3334F
:1001D100C4540F4420C8834004F456800146F6DF1E
:1001E100E4800B010204081020408090026CE47E40
:1001F100019360BCA3FF543F30E509541FFEE49313
:10020100A360010ECF54C025E060A840B8E493A3D9
:10021100FAE493A3F8E493A3C8C582C8CAC583CA04
:10022100F0A3C8C582C8CAC583CADFE9DEE780BEBC
:010295000068
:00000001FF
